:400000000080002011000000CD010000CD01000008B5044B1A6803F53F5302331A6000F0D7F800BFFA46004010B5054C237833B9044B13B10448AFF300800123237010BD0C
:400040002881FF1F0000000060200000084B10B51BB108480849AFF300800848036803B910BD074B002BFBD0BDE81040184700BF00000000602000002C81FF1F0881FF1F01
:400080000000000008B5002304E00021124AD1540133DBB20A2BF8D9002305E00E4A1A44002111730133DBB2012BF7D962B601F037FE01F049FE0020022100F025FC00F039
:4000C00067FC0028FBD0012003490B2200F086FC022000F0CBFC08BD4481FF1F38B5002429E02546204601F033FEC0F30F10134B03EB440318827F3880B2188400B27F2833
:4001000004DD0E4B03EB44037F221A840B4B03EB4503B3F9203013F17F0F05DA074B03EB45034FF681721A84044B03EB4502128C5A550134E4B2072CD3D938BD4481FF1F67
:4001400010B501F04BFD044C207201F04DFD607201F050FDA07210BD4481FF1F10B5044C207B01F04DFD607B01F050FD10BD00BF4481FF1F08B5FFF785FF012000F0B6FC25
:400180000028FAD0FFF7AAFFFFF7DAFF012000F005FC012803D10B490B2200F01FFC022000F0FCFB01280AD1022000F001FC02460220054900F072FC022000F057FCFFF7B7
:4001C000CDFFDAE74481FF1F5081FF1FFEE700BF08B5104E104D16E029686B68AC68002204E051F8040B43F8040B0432A242F8D1E868002203E0002143F8041B04328242C1
:40020000F9D11035013E002EE6D101F0EFFEFFF7B1FFFEE7010000002422000008B5134A134B1A60134A136843F40073136000230AE0032B03D8104A52F8231000E00F49CF
:400240000F4A42F8231001332F2BF2D90D4B1A780D4B1A700A4A0D4B1A6000F0BBF800F04FF900220A4B1A6008BD00BF0004FA050CED00E014ED00E000000000CD01000092
:400280000080FF1FBC7600400481FF1F08ED00E00081FF1FF0B40022174611E050F82760F3B226F0FF0608E001EB420511F812406D78A5550132013BDBB2002BF4D10137FB
:4002C000242FEBD9F0BC70471222174B1A801823164A13704FF6FF7102321180023213700622134B1A705222A3F580731A70114B1B78DBB2104A1370A2F29D6200231380CA
:40030000072111700D490B7048200231087013700532137002220A4B1A700A4A137843F003031370704700BF8040004082400040004300400F010049A14600400640004054
:4003400001400040A243004070B4164B1B78DBB215480278D2B2154C2178C9B203F00706134D2E701B0901352B7042F00303037041F003032370FF250E4B1D7040230E4D32
:400380002B7002352B70F0250C4B1D70202503331D70217002704422A3F2AD231A7070BC704700BFCF010049F8460040F94600406E5800400D51004001590040205B0040C6
:4003C00008B50A46002101F042FE08BD08B501F033FE08BD38B572B600240CE0324963001A1952000A4423445B00C8589188FFF7E7FF0134E4B2052CF0D94FF090402B4940
:40040000FFF748FF2A480421FFF7DAFF29482A490422FFF7DBFF294A137843F0020313701032137843F002031370254C237843F040032370A2F58632513A137843F010033E
:400440001370204820490822FFF7C0FF1F4820490822FFF7BBFF1F481F490A22FFF7B6FF1E481F490822FFF7B1FF1E481E490822FFF7ACFF1D481E490822FFF7A7FF1D4ACA
:40048000137843F0080313701B4D61232B70FFF71BFF81232B70FFF757FF184821460E22FFF794FF38BD00BF6420000094000048007600400876004058070048035001408B
:4004C000A04300400251004024070048C25100402C070048F0510040340700481251004040070048225100404807004832510040500700482243004000480040B0430040C3
:400500000B4A7F2313708021517007E0DA0002F1804202F5F042013BDBB21370002BF5D1DB0003F1804303F5F04300221A7070470C81FF1F172815D831B103010A495A5C1D
:4005400042F020025A5405E0030107495A5C02F0DF025A540001044A835C43F00103835400207047012070471070004017280CD80001074BC1180A7942F004020A71C25CBB
:4005800042F00102C254002070470120704700BF1070004017280BD80001064A835C03F0F10301F0070143EA4101815400207047012070471070004041F6FF73994201D187
:4005C0004FF4005141F6FF739A4201D14FF40052172808D8C00000F1804000F5EC408180C280002070470120704700BF172805D8034B03EB0010417200207047012070474F
:400600001070004017281BD810B4C00000F1804404F5EC44D201D2B201F07F01114321709DF804201201D2B203F00F03134363709DF8083003F00F03A3700020E07001E005
:40064000012070475DF8044B704700BF10B501F097FC0A4B5B78182B0BD9084A1478013B5370E30003F1804303F5F0431B78137000E0FF2401F088FC204610BD0C81FF1FE2
:4006800010F0800F0CD111F4704F0BD1C00000F1804000F5F04001808270C37000207047012070470120704710F0800F08D1C00000F1804000F5F0408180C2800020704753
:4006C0000120704701BE704708B5034B1B7A03FB00F001F04DFC08BD1481FF1F70B504460E46074B1D681F2802D90020FFF7EAFF04F01F04103455F8240045F8246070BDF7
:4007000008ED00E038B504460D46072902D90020FFF7D8FF1F2C02D90020FFF7D3FF04F01F0000F1604000F564406D01EDB2057038BD00BFF8B501F023FC0746384A1378CA
:4007400043F0010313701032137843F0010313700126344B1E700225943B1D7002F5E2521B32137803F07F0313700020FFF7ACFF2D4C237803F0F90323702C4A137803F03B
:40078000DF0313702378334323703046FFF79CFF2820FFF799FF264B1A7802F07F021A701A7802F0BF021A7023782B4323702846FFF78AFF237843F00403237000231D4A09
:4007C000137001321370384601F0DEFB17201A49FFF784FF17200721FFF794FF15201749FFF77CFF15200721FFF78CFF18201449FFF774FF18200721FFF784FF30461149F2
:40080000FFF76CFF30460721FFF77CFF28460E49FFF764FF28460721FFF774FFF8BD00BFA54300409D6000409443004012600040F851004084600040F90F0000F50F0000D0
:40084000090E0000850F0000BD0F000010B5002304E001241F4AD4542344DBB2002BF8D01D4B4FF400021A604FF080721A6002221A6004221A600022184B1A7011B101298D
:4008800004D007E00222164B1A7006E00322144B1A7002E00322124B1A70124B18700023114A1370114A1370114A1370114A1370114A1370114A13700322114B1A708022A3
:4008C000203B1A70012001F053FB04220D4B1A7010BD00BF3482FF1F00E100E0B781FF1F09600040A481FF1FB481FF1FB581FF1FB681FF1FA581FF1F2982FF1F9881FF1F08
:40090000286000401260004038B505460C46064B1B7823B9FFF70EFF0122034B1A7028462146FFF793FF38BD7481FF1F002304E001210E4AD1540B44DBB2002BF8D00023F8
:400940000B4A13700B4A13700B4A13700B4A13700B4A13700B4A13700B4A137003220B4B1A708022203B1A70704700BF3482FF1FB781FF1FB481FF1FB581FF1FB681FF1F67
:40098000A581FF1F2982FF1F9881FF1F28600040014B1878704700BFB481FF1F00EB40008000024B18444078704700BFB881FF1F0138C0B207280CD80001C0B2064BC25C0D
:4009C00002F00F020133C35C43EA0220023880B270470020704700BF0C60004070B4451EEDB2072D38D82D01EDB21C4E2E4400EB40039B001A4C2344DB889BB2C3F5007369
:400A00009A4207D900EB40039B002344DA88C2F5007292B200EB40039B00114C2344DB7843EA12230F4C2B55D3B201342B5529B907E0CC5C347001339BB200E000239342B6
:400A4000F7D3074A41000B189B00134400245C705B79DBB2044AAB5470BC704788600040B881FF1F0C6000400E600040431EDBB2072B0ED830B41B01DBB20649440022184B
:400A800092000A44002555705279D2B202495A5430BC7047B881FF1F0E6000402DE9F041431EDBB2072B19D8D1B190460D4606461B01DBB20C4F1F44FFF77AFF0446804548
:400AC00000D84446002303E03A78EA5401339BB2A342F9D33046FFF7C9FF02E0002400E000242046BDE8F081886000400138C0B2072807D80001C0B2034BC05C00F01000F4
:400B0000C0B27047002070470E6000401E4B19781E4A13880B449BB21380002311E003F1804101F5C0411A4A50680078C0B208705168013151600133DBB21188013989B232
:400B40001180134A128892B20AB1072BE7D90E4A1278D2B2082A00D05BB10E490A7882F080020A700F210C4A117002210B4A117004E0022208490A7008490A70024A1370D4
:400B8000074A1370704700BF9881FF1F9A81FF1FA881FF1F2582FF1FA781FF1FB781FF1FA681FF1F0222074B1A708022064B1A700F22064B1A700023054A1370054A13703E
:400BC00001207047B781FF1F2582FF1FA781FF1F9881FF1FA681FF1F08B5FFF797FF08BD10B41A4B197801F00F010239C9B2184A13880B449BB21380002013E0154B5C685E
:400C000000F1804202F5C0421278D2B222705A6801325A600130C0B20139C9B21A88013A92B21A800B4B1B889BB20BB10029E5D1094B1970094A137883F0800313700B2264
:400C4000074B1A705DF8044B704700BF296000409A81FF1FA881FF1FA681FF1F2582FF1FA781FF1F0623064A1370064A13708022054B1A700022054B1A700120704700BF07
:400C8000B781FF1FA781FF1F2582FF1FA681FF1F064B9B6843B1054B9A6810709A6804490988518000229A60704700BFA881FF1F9A81FF1F08B5134B1A78D2B21A701B7863
:400CC000DBB213F0800F02D00F4A137008BD0220FFF7DEFF0D4B1B7803F06003202B05D0402B06D043B900F0BDFD06E001F050F903E000F065FF00E0002010B90322024B93
:400D00001A7008BD28600040A781FF1F0060004008B5084B1978084A13880B449BB213800022064B1A700120FFF7B2FF0322044B1A7008BD9881FF1F9A81FF1FB781FF1FAB
:400D4000A781FF1F08B50B4B1B78DBB2042B06D0062B07D0022B0BD1FFF7DAFF08BDFFF73FFF08BD0320FFF793FF0322024B1A7008BD00BFB781FF1FA781FF1F08B50022B1
:400D8000044B1A700120FFF783FF0322024B1A7008BD00BFB781FF1FA781FF1F08B50B4B1B7813F0FF0F07D0084A137843F0800307490B70002313700022064B1A700120F5
:400DC000FFF766FF0322044B1A7008BDA581FF1F08600040B781FF1FA781FF1F08B5094B1B78DBB2042B06D0062B07D0022B07D1FFF7F2FE08BDFFF7C1FF08BDFFF7CEFF21
:400E000008BD00BFB781FF1F08B5284B1B78DBB213F0100F48D013F0800F0CD003F00F03012B16D1FFF746FF214B1B7813F0800F11D1012312E013F0400F03D0FFF7CEFF1C
:400E400001230BE013F0200F07D0FFF77BFF012304E0002302E0002300E0002323B3134B1B7813F0800F1FD1124B1B78124A12781343124A13701278D2B29A4214D10C4B3D
:400E80001B78DBB2094A127812F0800F07D1084B1B78DBB2054A1370137803F00F03044A1278D2B29342EAD108BD00BF28600040A781FF1F2582FF1FA681FF1F29600040A6
:400EC0000022064B1A80064B9B682BB1044A916800230B7092685380704700BF9A81FF1FA881FF1F08B5104B1B889BB213B9FFF759FE16E002220D4B1A7000220C4B1A70ED
:400F0000FFF7DEFF0B4B1A78013B1B7843EA0223054A128892B29A4201D9034A1380FFF7F5FD012008BD00BFA881FF1FB781FF1F2582FF1F0760004008B504220C4B1A70B8
:400F400080220C4B1A70FFF7BBFF0B4B1A78013B1B7843EA0223094A128892B29A4201D9064A13800B22064B1A70012008BD00BFB781FF1F2582FF1F07600040A881FF1FB5
:400F8000A781FF1F0A4B1B780A4B1B7B03F00303012B04D0074AD37B83F08003D3730122044B5A73044A137803F0FE03137070470E600040B881FF1F0B6000400A4B1B7866
:400FC0000A4B1B7E03F00303012B04D0074AD37E83F08003D3760122044B5A76044A137803F0FD03137070471E600040B881FF1F0B600040704700BF08B5FFF797FC08BDA0
:4010000008B50B4B18780138C0B200F0BBF9094B1B78DBB200EBC30042690749CB5C02EBC3035B68596A0B78044A1380516008BDB481FF1F046000409C81FF1FA881FF1FEE
:4010400008B50D4B18780138C0B200F09BF90B4B1B78DBB200EBC30042690949CB5C02EBC3035B68DB69597813F8022B42EA012204490A804B6008BDB481FF1F0460004004
:401080009C81FF1FA881FF1F10B50022194B1A80194B18780138C0B200F074F9174B1B78DBB2174A1278D2B200EBC200416902BB1448825C01EBC20149685A1ED2B2022A06
:4010C00017D803F10053013B01EBC3000E4A1278D2B211F8333093420BD3406802EB4202920081184C68034B5C60825A1A808A689A6010BDA881FF1FB481FF1F036000401C
:40110000046000409C81FF1F0260004008B55F4B1B78DAB25E4B1B7813F0800F4ED05D4B1B78013B052B00F29280DFE803F0222C3C909003584B1B78DBB2212B0AD1FFF7CA
:401140005FFF564B1B889BB2002B00F08280FFF7C9FE08BD504B1B78DBB2222B7BD1FFF76FFF4E4B1B889BB2002B76D0FFF7BAFE08BDFFF789FF494B1B889BB2002B6ED051
:40118000FFF7B0FE08BD002A6BD1454B1B7813F0FF0F68D1414901230B80424B13444B60FFF7A0FE08BD002A5FD13C4901230B803D4B13444B60FFF795FE08BD344B1B785A
:4011C00013F0800F53D1334B1B78DBB20A2B0DD00B2B2ED0092B4CD1FFF756FF2F4B1B889BB2002B47D0FFF7A7FE08BD002A44D12B4B1B7813F0FF0F41D1274B1B78DBB2B0
:4012000028498B548B5C2949895CDBB28B4203D20021264B995409E0244B9B5CDBB2012B04D9204B9B5CDBB220498B54FFF71AFD08BD32BB1A4B1B78DBB2012B23D8184B88
:401240001B78DBB218498B54FFF70CFD08BD002008BD002008BD002008BD002008BD002008BD002008BD002008BD002008BD002008BD002008BD002008BD002008BD00206E
:4012800008BD002008BD002008BD00BF04600040006000400160004003600040A881FF1F026000403082FF1F3482FF1F2C82FF1FF0B50024012052E0254604F1804303F5C8
:4012C000C1430C221A70024600EB40039B0027490B445B7913F0FF0F0FD000EB40039B000B441B7913F0800F03D00C21204BE15406E008211E4BE15402E080211C4BE154F4
:401300001A4F53009918890039440E89C6F30726DFF86CE005F80E600E89F6B20EF1010E05F80E60CE88F6B20EF1790E05F80E60CE88C6F307260EF1010E05F80E60C98882
:40134000C9B20C4EA95513449B003B44DB88C3F30723094AAB540130C0B21034E4B214F0800FA9D0FF22054B1A70F0BDB881FF1F0E60004084600040856000400A6000406B
:401380000C600040074B1B78074A02EBC30253681A7A824203D903EBC003D86870470020704700BFA481FF1F88200000F8B54C4B1B7813F0FF0F00F09280494B187801383A
:4013C000C0B2FFF7DFFF057AC068002384E00178444A525C444C645CD2B2A24279D0414A525CD2B24478A24273D1404A1278D2B291426ED1847804F07F02511E0901C9B213
:40140000C67806F0030614F0800F12D002EB4204A400374F3C4401276770BE4201D1072600E00D2602EB4204A400314F3C44667111E002EB4204A4002D4F3C44002767709C
:40144000012E01D1052600E0092602EB4204A400274F3C4466710126264C0E55B0F804C0234F02FA06FE0EEB0206B600BC19A4F808C090F802C084F804C090F803C007F8EF
:4014800006C00026E6702689C6F30726DFF870C001F80C602689F6B20CF1010C01F80C60E688F6B20CF1790C01F80C60E688C6F307260CF1010C01F80C60E488E4B20E4E05
:4014C0008C55724492003A44D288C2F307220B4C0A5508300133DBB2AB42FFF478AFF8BDB481FF1F9C81FF1F2482FF1F04600040B881FF1F0E60004084600040856000405E
:401500000C600040034B1A78034B03EBC2035868704700BFA481FF1F8820000008B5074B18780138C0B2FFF72DFF28B14268127900EBC203586908BD002008BDB481FF1F15
:40154000F8B500220EE06B4E53009D18AD00741900217155A1706170E17061712181A1720132D2B2082AEED940B90AE000226249CA546249CA540133DBB200E00023002BDC
:40158000F4D05F4B1B7813F0FF0F00F0B2805C4B18780138C0B2FFF7F5FE4368DB7913F0400F05D0574A137843F00103137004E0544A137803F0FE031370057A01246EE0AA
:4015C000C168002367E08A7802F07F0294425FD1264604EB44029200464F3A44128992B28F88BA4206D204EB44029200DFF804E1724417810A78404FBA5CD2B24F78BA428E
:4016000046D1CF7807F0030791F90220002A18DA06EB46029200DFF8DCE072444FF0010E82F801E0774502D14FF0070E01E04FF00D0E06EB460292002E4F3A4482F805E083
:4016400017E006EB46029200DFF8A8E072444FF0000E82F801E0012F02D14FF0050E01E04FF0090E06EB46029200224F3A4482F805E091F802C01F4F4FEA460E0EEB0602FF
:4016800092003A4482F804C0CA787644B600BA5508310133DBB2AB4295D30134E4B2082C8ED9C06800220CE0837803F07F0310F8084B03EB43039B0013490B449C700132AC
:4016C000D2B2AA42F0D3FFF729FF104B1860002001220AE0074C5300991889002144C8800B89184480B20132D2B2082AF2D9FFF7DFFDF8BDB881FF1F9C81FF1F2482FF1F59
:40170000B481FF1F2982FF1FC081FF1FA081FF1F38B5144B1B7803F07F035A1ED2B21101C8B2072A1CD8104C5D00EA1892002244917841F0010191700021D170517841F0A2
:4017400002015170137913F0800F03D08D22074BC25402E08922054BC254FFF783FA38BD002038BD04600040B881FF1F0E600040244B1B7803F07F035A1ED2B21101C9B284
:40178000072A3CD810B55A001A4492001E480244907800F0FE0090700020D0701B4C085D00F07F000855507800F0FD005070127912F0800F10D003EB43039B00124A134448
:4017C0005B78DBB2012B03D10C22114BCA5413E00D220F4BCA540FE003EB43039B000A4A13445B78DBB2012B03D10822084BCA5402E00922064BCA54FFF734FA10BD002056
:40180000704700BF04600040B881FF1F0C6000400E60004010B50E4B1C78E4B20D4B18780138C0B2FFF7AEFD43681B799C420BD264B9094A135DDBB208490B55084B1B7863
:40184000DBB21355012010BD002010BD002010BD04600040B481FF1F9C81FF1F2482FF1F0260004010B50022964B1A80964B1B7813F0800F00F0A180944B1B78DBB20A2B66
:4018800000F27581DFE813F05B00730173017301730173010B007301860073018E008C4B1B78DBB2012B09D1FFF72CFE4268854B5A6012221A80FFF715FB10BD844B1B787C
:4018C000DBB2022B16D103F1804303F5C0431878FFF758FD002800F04C814268794B5A605A68D1785A68927842EA01221A80FFF7F9FA10BD764B1B78DBB2032B05D01BE058
:401900000A7811440133DBB201E000237149724A1278D2B29A4203D90A7812F0FF0FEFD10B7813F0FF0F00F026810B78654A13805160FFF7D7FA10BD00F02AFB10BD624BB9
:401940001B7813F0030317D0022B40F016815D490B80624B1B7803F07F0303EB43039B005F4A13449A78D2B25E4B1A7000225A704B60FFF7B7FA10BD524902230B805A4B77
:401980001A78D2B2574B1A7000225A704B60FFF7A9FA10BD4B4B01221A80544A5A60FFF7A1FA10BD474A012313804C4B1B7850490B445360FFF796FA10BD444B1B78013B21
:4019C0000A2B00F2DC80DFE813F04700DA009F00DA000B00DA00DA00DA001300DA0030003D4B1B78DBB2434A1370FFF73BF910BD394B1B7803F0FF041BB1601EC0B2FFF7DC
:401A0000C1FC04B110B9002C40F0BB80374B1B78DBB29C4206D0354B1C700120364B1870FFF78EFDFFF71EF910BDFFF7F3FE002800F0A980294B1C78E4B2304B1C700122FD
:401A40002D4B1A70FFF7B2FC294B1B5DDBB22C4A1355FFF707F910BD1B4B1B7803F00303012B1DD073B1022B40F08F8003F1804303F5C0431B7813F0FF0F40F08880FFF787
:401A800077FE10BD144B1B78DBB2012B40F08180154A137803F0FD031370FFF7E3F810BD0E4B1B7813F0FF0F75D10B4B187802331B78DBB21349CA5C22EA0002CA54FFF7E8
:401AC000D1F810BDA881FF1F006000400160004003600040742100000260004004600040B881FF1F7881FF1F2982FF1FB481FF1F9C81FF1FA581FF1FB681FF1FB581FF1F98
:401B00002482FF1F2882FF1F284B1B7803F00303012B1AD063B1022B3FD103F1804303F5C0431B7813F0FF0F39D1FFF7F1FD10BD1F4B1B78DBB2012B33D11E4A137843F0C2
:401B400002031370FFF78EF810BD1B4B1B7813F0FF0F28D1164B187802331B78DBB21749CA5C22EA0002CA54FFF77CF810BD002010BD002010BD002010BD002010BD00208E
:401B800010BD002010BD002010BD002010BD002010BD002010BD002010BD002010BD002010BD002010BD002010BD00BF00600040026000402982FF1F046000402882FF1FE0
:401BC000044B1B7813F0800F01D0034B1B780020704700BF0060004001600040014B1878704700BF65650040014B1878704700BF6A640040014B1878704700BF69640040CD
:401C0000014B1870704700BF76640040014B1870704700BF7964004010B5022001214FF4804241F6FF7300F055F9084C20701020012141F6FF72134600F06CF9607004483C
:401C400000F086F9002000F089F910BD7C81FF1F6D1D000070B52C4C2078FEF787FC6078FEF784FC294B1B78FF2B03D1FEF7EEFC264B1870254D2A78104610210623FEF761
:401C8000FFFC214E341DA4B2287845F6A0312246FEF70AFD30782978FEF7A8FC6B78FF2B02D1FEF7D3FC6870184D6A78104610210723FEF7E5FC68782146154A92B2FEF7F8
:401CC000F3FC114C60786978FEF790FC20780121FEF730FC60780121FEF72CFC00F050F90C4A137843F02003137000F04DF90A4B1A7842F001021A701A7842F002021A704B
:401D00000122064B1A6070BD7C81FF1F2481FF1F3882FF1F936400407064004080E200E008B5074B5B6923B9FFF776FF0122044B5A61FFF78FFF00F0B7F8024B1B7808BD36
:401D40007C81FF1F6164004008B500F0BBF808BDC0F10700034B33F81030034A1088181A00B270473882FF1F4A82FF1F704700BF08B50A280FD00C2802D0082806D102E038
:401D80004FF4805209E04FF4807206E00020FEF799FC002201E04FF480620021094B198042F2107303FB02F303F6C413064A82FB0302DB17C3EBE223044A1360044B198090
:401DC00008BD00BF4882FF1FAD8BDB684C82FF1F4A82FF1F10B500F0D3F80446184A137843F0010313701032137843F00103137002F5AA520832137843F003031370182280
:401E0000104B1A70013B1A7842F040021A701A7802F0FC021A70C822053B1A700222A3F597530C3B1A70084A137843F0080313700A20FEF749FC204600F0A6F810BD00BF38
:401E4000AB43004006590040275B004010B504460A280DD00C2802D0082804D101E0C22207E0422205E00020FEF72CFCC22200E08222034B1A702046FFF77AFF10BD00BFD7
:401E80000259004008B5064A137843F0060313700C20FFF7DBFF0022024B1A8008BD00BF015900405082FF1F08B5054B1B7823B9FFF7E8FF0122024B1A70FFF78BFF08BD85
:401EC0009481FF1F024A137843F001031370704700590040F0B583B086460F4616461D460B4C01232370002200920192184671463A46FEF787FB207831462A46FEF75CFBEA
:401F000020780221FEF746FB207803B0F0BD00BF2681FF1FF0B583B086460F4616461D460A4C0023237000930193184671463A46FEF768FB207831462A46FEF73DFB207818
:401F40000221FEF727FB207803B0F0BD2781FF1F014B1B681864704708ED00E04001C0B2014B1870704700BF00E400E0000000000230800803D000BF01380046FCD1704782
:401F8000EFF3108072B6704780F31088704700BF08B5124B1B7803F00303012B02D0022B04D00FE00E4B1B78DBB20CE00C4B1B7803F07F0303EB43039B000A4A13449B786A
:401FC000DBB200E00023084A1268D35C032B02D1FFF79CF808BD002008BD00BF0060004004600040C081FF1FA081FF1F0E4B70B51E460E4C0025E41AA410A54204D056F864
:40200000253098470135F8E700F0FAF8084B094C1E46E41AA4100025A54204D056F8253098470135F8E770BD0C2200000C2200000C2200001422000010B5431E0A4491420C
:4020400004D011F8014B03F8014FF8E710BD03460244934202D003F8011BFAE7704700000000000040510040300000000140001000140140000800400140000A004C014094
:402080000002005001402000010000009020000001000000EC21000001000000A020000001000000C021000002000000C420000001000000D420000000000000C020000050
:4020C00003000000000081030B000300000002030200030001000000DC200000000000001021000000000000042100000000000000000000010000001C21000001000000AF
:40210000D2210000030000005482FF1F6882FF1F0C0000005C82FF1F5882FF1F520005010904A1010901A100093009310932093309340935093609371581257F75089508C3
:402140008102C00509190129161500250175019516810275019502810305081901290C150025017501950C9102950175049103C000000000040309042C0343007900700032
:4021800072006500730073002000530065006D00690063006F006E0064007500630074006F0072001A034300790043006F006E00740072006F006C006C00650072000000E6
:4021C0000902290001010080FA090400000203000000092111010001225200070581030B000A0705020302000A0000001201000200000008B40411110000010200010000AF
:40220000F8B500BFF8BC08BC9E4670474D0000001D020000F8B500BFF8BC08BC9E46704729000000382200000881FF1F200000004801000000000000000000007F800000A2
:40224000030000000000E02EC05D00001800000000366E01FFFFFFFF0000000000000000000000000000000000000000000000000000000000000000000000000000000077
:40228000000000000000000000000000000000000000000000000000000000000000000000000000000000000000000000000000000000000000000000000000000000001E
:4022C00000000000000000000000000000000000000000000000000000000000000000000000000000000000000000000000000000000000000000000000000000000000DE
:40230000000000000000000000000000000000000000000000000000000000000000000000000000000000000000000000000000000000000000000000000000000000009D
:40234000000000000000000000000000000000000000000000000000000000000000000000000000000000000000000000000000000000000000000000000000000000005D
:020000040003F7
:0200000480007A
:40000000014500400A520040015B004001640040130001402D01014033020140390301401B0401403C0501400706014037070140120801402C090140180A01402D0B01404B
:40004000020D01401814014035150140191601403F17014015190140051B01400A400140144101400D4201400C430140044401400F450140104601400D470140104801403D
:4000800012490140124C01400F4D014009500140025101407E02005501960CFC14FF1CFF6034619C782379157C402784830706021E011F0122043001340235013604520354
:4000C0005302580459045B045F01D401D804D904DB0CDF0100080120020103010404052006010A840B010C110E040F121001131A19A11A801BA120042308280129812B20D5
:400100002D202E042F803090370138043A013B103C043F125C805E4069506A107D40C0E7C2FBC40FCAEBCC8CCEE7D610DE10040F050F0808090A0A070B050C0F0D0F110F4D
:400140001405160A1A0F200E210822012307270F290E2B012C0F30013104320433013408350236023708580459045F0189049301950498019E039F02A101B001B103B3047F
:40018000B402B908BF04D602D739D80CD904DB0CDC90DF010404052006010A0A0E040F101401164019011A481C021E081F0A22092501271929012D202E042F803281330489
:4001C000340139103C843F105A106208688E69056B027305794081018F089004915092909644971199609E019F02A380A484A880AD40C0E0C263C490CAE1CC8BCE74D6049A
:40020000D802DE08E21000400280060408100A200E011202160818011C022004240828202A102C802E4030FF3E015608580459045B045D905F01D804D904DF01008401202B
:40024000024103C004040520080109080A800B150C110D080E04100A11051641184029202A412D202E042F80301031083240340138043C843F1059406280884090049105AA
:40028000928093059604971099609C019E41A00AA380A440A680AA04AB14AF02B001B309C06FC27FC49FCAEDCC8ECE72D608D808EA81EEA0580459045B045F01D804D90470
:4002C000DF01008401A003400404058009080A840B200C110D080E0416211740281029802A012D202E202F10310832403411374038043A203C846C146D82740277158014E5
:400300008402852089408C048F4490449105928093059604980199209B40A440A508C0AFC27EC4A0CA6BCCBACE56E402E620EE04580459045F0186048E0292089601A7011E
:40034000B008B204B301B401B602D804D904DB04DC11DF010008018006100701080809020D800F44170A18051909220428202F08352037893F4459415A18600569086AA25C
:40038000874089048D208E108F0A930497409D209F89A580A708C0A5C2DCC430CA22CCF0CE50D60FD80CE010E450EE0407020B011201130416041708220226083002310213
:4003C000320433013401350436083708580459045B045C115F01D804D904DF0105200701080A0D800F4410901788181019411A0420402120228023202F0830093520378921
:40040000380839103F4459415A045B206050612062808B0490089110981BA088B011B110B48AC0C0C2DCC4ACCA20CCF3CE56D60FD80FE420EA0188088C04580459045F0178
:4004400087048A018F01920897089A049B02AE02B001B101B208B304B404B502B602B708D804D904DB04DC11DF0102420360060409180A800E84121016021F56261827820F
:400480002A602B203108324234013520370A3A103F885C045D015E205F80640167A88120820483448646870889018A088C048F0292809A309B40A118A202A320A901AF0198
:4004C000B401C04DC25EC484CA0ECC6BCE54D6F0D8F0E812580459045F018220840487028E10900294089A019B019E02A204A608AC01B020B101B302B41FB820BE10D8041D
:40050000D904DC01DF010045021006600740081009080A800B050D080E040F40110512021401161018801A041B2020802108220A23402A502B202F20301031083240340102
:400540003608374039043A203B403C043D203E203F408C409044910592809305960498019A209B41A101A440A508AB10AD08B204B640C03DC27FC4ADCA4ECCDECE7EE8029B
:40058000EA01EE0282408A018C088E10928296109C289D80A404A502AD48AF01B210B380B580B708E411E810EA01EC20EE02B004B182B420E812EE10128016803102322035
:4005C00036403B023E80C430CC70CE6053425501561059045C086201660281048D019702A502A640AA20AE80D4E0D6E0D8C0E680EC10EE80508057409702A502A640AA0312
:40060000AF40B008B210B302D460EA30EE208240830884808B20A480A502A640A740AB01E230E680EE2073107C40DC01DE04000801200420050808210C080D8088018D80C2
:4006400094409710C00FC20FE208E6041B0427805420944097109F80AB80B00CB108B430B520C608C801D402EA0FEE060B400E1044028B108C6094409710A420AB04C20C12
:40068000D004E002E4092408522057085A405F2092409B20A308A902AB40AE40C820D4E0D620EAA0EE4002020310051409400B100F4281148202831085408751AA20B404CB
:4006C000C0F0C2F0E0F0E4F0EE8003080704080809200C010F087008834088808F049C02AA10AF40C003C20FDC01E004E2027740788098809B40AC08B001B120B308B40A6C
:40070000B704DC01DE04E808EA06EE0D00030101080109010A010B010C0310031A03002B100A00000000000000FFFF0000FCFC00FC0000000000003F3F003F00C000000042
:40074000FCFC000000000000FFFF000000000000FFFF0000000000000001000000000000000000000000000000000000000000000000000000000000000000000000000084
:400780000000000000000000000000000000000000000000000000000000000000000000000000000000000000000000000000000000000000000000000000000000000039
:4007C00000000000000000000000000000000000000000000000000000000000000000000000000000000000000000000000000000000000000000000000000000000000F9
:4008000000000000000000000000000000000000000000000000000000000000000000000000000000000000000000000000000000000000000000000000000000000000B8
:400840000000000000000000000000000000000000000000000000000000000000000000000000000000000000000000000000000000000000000000000000000000000078
:0200000490006A
:0400000000004005B7
:0200000490105A
:04000000BC90ACAF55
:0200000490303A
:020000009F035C
:0200000490402A
:4000000000000000000000000000000000000000000000000000000000000000000000000000000000000000000000000000000000000000000000000000000000000000C0
:400040000000000000000000000000000000000000000000000000000000000000000000000000000000000000000000000000000000000000000000000000000000000080
:400080000000000000000000000000000000000000000000000000000000000000000000000000000000000000000000000000000000000000000000000000000000000040
:4000C0000000000000000000000000000000000000000000000000000000000000000000000000000000000000000000000000000000000000000000000000000000000000
:0200000490501A
:0C00000000012E16106900012E24AF6CC8
:00000001FF